:03000000020800F3
:0C080000787FE4F6D8FD758113020847EC
:020A6000A1A053
:0A09E60008090000000000000000F6
:10088C001209D47D0CE4FF1209197D227F01120993
:10089C00197D387F021209197D4E7F03120919E464
:1008AC00FF1208E08F087F011208E08F087F021208
:1008BC0008E08F087F031208E08F08E50875F00A3E
:1008CC0084F509E50875F00A8485F00A1209A81266
:0408DC000A4780E760
:100919008F118D12120A59120A1B900A61E493FF72
:100929001209451209F4AF111209451209F4AF125F
:0C0939001209451209F4120A27020A47AD
:0208E0008F1176
:1008E200120A59120A1B900A61E493FF1209451277
:1008F20009F4AF111209451209F4120A1B900A6099
:10090200E493FF1209451209F412098A8F12120A9E
:0609120001120A27AF12DA
:0109180022BC
:080A47007F3B7E5ADEFEDFFC5E
:010A4F002284
:080A50007F027E27DEFEDFFCC1
:010A5800227B
:070A5900D2A0D2A1020A5055
:0C0A1B00D2A0D2A1120A50C2A1020A50BF
:0A0A3300C2A0120A50D2A1020A501C
:0C0A2700C2A1D2A0120A50D2A1020A50B3
:02094500AD07FC
:10094700C2A0120A50E4FCED30E703D38001C39242
:10095700A1ED25E0FDD2A0120A50C2A0120A500C48
:03096700BC08E4E5
:01096A00226A
:10098A00E4FDFCD2A0120A50ED25E0FFA2A1E43357
:0D099A004FFDC2A0120A500CBC08E8AF05CA
:0109A700222D
:0D09F400D2A0120A5020A1FDC2A0020A509C
:0D0A0100D2A0120A5030A1FDC2A0020A507E
:0A0A3D00C0F9A4B0999282F88090ED
:0309F000011300F0
:10096B008D117401A807088002C333D8FCFD7F06E4
:0F097B001209C1E511900A3D93FD7F070209C1E2
:1009A80074092513F8E6FDAF1312096B0513E51357
:0809B800C394084003E4F513A9
:0109C0002214
:0D0A0E0000000000000000000000000022B9
:1009C1008D80EFC43354E042A0120A0E53A01FE4FD
:0309D100F580228C
:1009D4007DFF7F041209C1E4FD7F061209C11F02D5
:0209E40009C147
:10080C0002088CE493A3F8E493A34003F68001F26E
:10081C0008DFF48029E493A3F85407240CC8C333ED
:10082C00C4540F4420C8834004F456800146F6DFBC
:10083C00E4800B01020408102040809009E6E47E5D
:10084C00019360BCA3FF543F30E509541FFEE493B1
:10085C00A360010ECF54C025E060A840B8E493A378
:10086C00FAE493A3F8E493A3C8C582C8CAC583CAA3
:10087C00F0A3C8C582C8CAC583CADFE9DEE780BE5B
:0109F3000003
:00000001FF
