:03000000020B23CD
:0C0B2300787FE4F6D8FD758134020B6A7F
:100D54000215000001090D0108000617080808081B
:100D64000808060B0A0A0A0A0A0A011100010A0005
:0B0D740002120000011400C100C101C8
:100BAF00120F7F120F6A120E8D80032001127B002D
:100BBF007A0079177527067F22120C32920180EB8B
:100BCF00851521851622AE15AF167C007D14120AED
:100BDF00B8ED4C700E12093C8F09E509640D6003E6
:100BEF00120800E50AB401170513E5137002051288
:100BFF00C39410E51294274006E4F508120E8DAE4B
:100C0F0015AF16E4FCFD7B407A9CF9F8C3120B0D6F
:100C1F005005E4F515F516E522B516A4E521B51531
:030C2F009F80F4AF
:03000B00020CB232
:100CB200C0E0C0F0C083C082C0D075D000C000C008
:100CC20001C002C003C004C005C006C0070516E586
:100CD2001670020515AE15FF7C007D06120AB8EDEE
:100CE2004C7003120F3CD007D006D005D004D003BD
:100CF200D002D001D000D0D0D082D083D0F0D0E0CA
:010D020032BE
:020800008F2344
:10080200E4F524E523D3940940030208B6E508641D
:10081200017067752403742D2524F8E6FF742C25D6
:1008220024F8A6070524E524B408EB852334051132
:10083200E5116406600302093B7524027415252440
:10084200F8E6FF742D2524F8E66F60197DFE7F041B
:10085200120FB0120FA17DFF7F04120FB0E4F50852
:10086200120E8D80090524E524D3940740CEE52499
:100872006408600302093B02090FE5086403600390
:1008820002093BE514600302093B752403742D251C
:1008920024F8E6FF742C2524F8A6070524E524B4E1
:1008A20008EB8523340511E5116406600302093B58
:1008B20075140122E523B40C11E508707C7508015A
:1008C200752D0B7DBF7F04020FB0E523640B7043CF
:1008D200E50864027025750803752D0CF50AF512FA
:1008E200F5137D7F7F04120FB0752401742D25242A
:1008F200F8760A0524E524B408F222E508640370B8
:1009020038E51464017032120DF2E4F51475080230
:10091200020E1CE523B40A21E50864016005E5081E
:10092200B40316E4F511F514752401742D2524F889
:09093200760A0524E524B408F25C
:01093B002299
:100E8D00E4F51112100A7DFF7F04120FB0E4F51185
:100E9D00F512F513F50A7F08782D740AF608DFFCB4
:010EAD002222
:100E1C00E4F5117DFF7F04120FB0E4F52D752E0A59
:100E2C00752F0A75300AF53175320D75330E753420
:080E3C000F121003750A0122D8
:0E0FA10000007FD37E1E7D0BDDFEDEFCDFFA3E
:010FAF00221F
:100DF200E4FF742F2FF8E6FE74172FF8A6060FBF34
:100E020006F080032000127B007A0079177529060C
:090E12007F22120D03920080EB17
:010E1B0022B4
:0F0FB0008D80EFC43354E0F5A0E4F5A0F5802266
:100F7F00E4FD7F05120FB00F120FB07DFF7F04024B
:020F8F000FB0A1
:100F9100C0F9A4B0999282F88090FFBFC68C86C830
:0D0D7F00082D0A0A0A0A0A0A0A0A012C00B5
:100EAE008D2B7401A807088002C333D8FCFD7F0682
:0F0EBE00120FB0E52B900F9193FD7F07020FB03D
:100F3C00742D252CF8E6FDAF2C120EAE052CE52CED
:060F4C00B40803E4F52CDB
:010F5200227C
:0D0FDD000000007E0B7DBEDDFEDEFCDFF3BC
:010FEA0022E4
:100F6A00538E7F5389F0758A33758CFEC28DD28C6D
:050F7A00D2A9D2AF2254
:040F08007F057E00E3
:100F0C00EF1FAA0670011E4A600BE4FDEDC3940CA2
:050F1C0050EE0D80F70E
:010F210022AD
:020ECD00A90773
:100ECF00E4FBC294E9139294120F08D294E9C3136E
:0C0EDF00F90BBB08ED7F057E00020F0C34
:100F2200E4FBC294ECC313FCD294309403430480D8
:090F3200120F080BBB08EBAF0421
:010F3B002293
:100E4400C204D2947F0C7E00120F0CC2947F287EC1
:100E540000120F0CD2947F0A7E00120F0CA29492FF
:060E640004120F08A204B5
:010E6A002265
:100D8D00120E4492057FCC120ECD7F44120ECD7FF4
:100D9D00647E00120F0C120E4492057FCC120ECD04
:100DAD007FBE120ECD120F22A907120F22EFC454CF
:080DBD00F0FFE9C4540F2FFF01
:010DC500220B
:071003007D107F05020FB014
:07100A00E4FD7F05020FB0B9
:0E0FBF0000007F027E437DB7DDFEDEFCDFFA20
:010FCD002201
:10093C007C0DC2C4D2C275B03FE5B0540FFF640F3A
:10094C006039120FBFE5B0540FFF640F602DEF2418
:10095C00F9601724FC600F24FE600714700CE4FC93
:10096C00800A7C0480067C0880027C0DEF640F609A
:10097C0007E5B0540FFF80F4AF0422C2C2D2C47595
:10098C00B03FE5B0540FFF640F603D120FBFE5B0F0
:10099C00540FFF640F6031EF24F9601724FC600FD3
:1009AC0024FE60071470107C01800E7C05800A7C8C
:1009BC000980067C0A80027C0DEF640F6007E5B0AD
:1009CC00540FFF80F4AF042275B01FE5B0540FFF35
:1009DC00640F603D120FBFE5B0540FFF640F603120
:1009EC00EF24F9601724FC600F24FE6007147010CC
:1009FC007C02800E7C06800A7C0D80067C0B8002BB
:100A0C007C0DEF640F6007E5B0540FFF80F4AF046A
:100A1C002275B02FE5B0540FFF640F603D120FBF6D
:100A2C00E5B0540FFF640F6031EF24F9601724FC1C
:100A3C00600F24FE60071470107C03800E7C07800E
:100A4C000A7C0D80067C0C80027C0DEF640F600725
:0C0A5C00E5B0540FFF80F4AF04227F0DC2
:010A6800226B
:040FEB00D2A07F050C
:080FEF0000AE071FEE70F922AD
:0F0FCE00D2A1120FEBC2A17F05120FEFC2A0221A
:0C0FF700C2A1120FEBD2A17F05020FEF88
:100F5300C2A0A20392A17F05120FEF120FEBC2A052
:070F6300D2A17F05020FEF90
:080E6B00120FCE7FA0120DC68C
:100E7300D2A0E4FD7F05120FEFA2A1920320030489
:090E8300C2A0D3220DBDC8ECC3CE
:010E8C002243
:020DC600AD0777
:100DC800E4FCC2A07F05120FEFED30E704D2A1804A
:100DD80002C2A17F05120FEFD2A0ED25E0FD7F052D
:090DE800120FEF0CBC08DBC2A0E5
:010DF10022DF
:100EEB00E4FC120FEBED25E0FD30A103430501C23D
:0C0EFB00A07F05120FEF0CBC08E8AF054B
:010F070022C7
:080D03008F258B268A27892821
:100D0B00120E6B9202200202C322AF25120DC612E5
:100D1B000E739202200202C322E4F52AE52AC39540
:100D2B00295021AB26AA27A928852A827583001270
:100D3B000A69FF120DC6120E739202200202C32221
:080D4B00052A80D8120FF7D32E
:010D5300227D
:080C32008F238B248A258926FB
:100C3A00120E6B9202200202C322AF23120DC612B9
:100C4A000E739202200202C322120FCE7FA1120D4E
:100C5A00C6120E739202200202C322E4F528E52787
:100C6A0014FFE528C39F501C120EEBAB24AA25A93A
:100C7A0026852882758300EF120A96C203120F5343
:100C8A00052880DA120EEBE5277C0024FFF582ECBA
:100C9A0034FFF583AB24AA25A926EF120A96D203BC
:070CAA00120F53120FF7D3E4
:010CB1002220
:100B2F00020BAFE493A3F8E493A34003F68001F222
:100B3F0008DFF48029E493A3F85407240CC8C333C7
:100B4F00C4540F4420C8834004F456800146F6DF96
:100B5F00E4800B0102040810204080900D54E47EC5
:100B6F00019360BCA3FF543F30E509541FFEE4938B
:100B7F00A360010ECF54C025E060A840B8E493A352
:100B8F00FAE493A3F8E493A3C8C582C8CAC583CA7D
:100B9F00F0A3C8C582C8CAC583CADFE9DEE780BE35
:010D8C000066
:100A6900BB010CE58229F582E5833AF583E0225042
:100A790006E92582F8E622BBFE06E92582F8E2228C
:0D0A8900E58229F582E5833AF583E49322A6
:100A9600F8BB010DE58229F582E5833AF583E8F096
:100AA600225006E92582C8F622BBFE05E92582C842
:020AB600F2222A
:100AB800BC000BBE0029EF8DF084FFADF022E4CC22
:100AC800F875F008EF2FFFEE33FEEC33FCEE9DECEB
:100AD800984005FCEE9DFE0FD5F0E9E4CEFD22ED31
:100AE800F8F5F0EE8420D21CFEADF075F008EF2F7B
:100AF800FFED33FD4007985006D5F0F222C398FD6C
:050B08000FD5F0EA2208
:100B0D00EB9FF5F0EA9E42F0E99D42F0EC6480C85F
:060B1D0064809845F022FF
:00000001FF
