:030000000208D71C
:0C08D700787FE4F6D8FD75810B02080064
:1008BA00E4FFFEE4FDFC0DBD00010CED64644C7028
:0C08CA00F50FBF00010EBE03EABFE8E717
:0108D60022FF
:100845007B087AFEAF031BEF601E1208BAE5A054C1
:100855001F4480F5A08A8053A01F7801AF02EF08DE
:08086500800103D8FDFA80DCDC
:01086D002268
:10086E007B087AFEAF031BEF601E1208BAE5A05498
:10087E001F4480F5A08A8053A01F7801AF02EF08B5
:08088E00800123D8FDFA80DC93
:01089600223F
:100897001208BAE5A0541F4480F5A07580FF53A045
:1008A7001F1208BAE5A0541F4480F5A0E4F5805351
:0308B700A01F225D
:10080000E4F508750901750A02750B03AB08790850
:10081000EB14600E14601214601624037023AB09ED
:1008200080EE120845AB0A80E712086EAB0B80E041
:100830007903AF0119EF600512089780F5AB0980C5
:05084000CFAB0880CBE6
:00000001FF
