:03000000020800F3
:0C080000787FE4F6D8FD75811D020847E2
:050A7600000000002259
:1009C3008D80EFC43354E0FFE5A0541F4FF5A01210
:0C09D3000A7653A01F120A76E4F5802279
:100A1200E4FD7F051209C37DFF7F041209C3E4FDD3
:050A22007F060209C37C
:10097C00120A12120A27120A63E4F51BF51CAE1BAD
:10098C00AF1CE4FCFD7B407A9CF9F8C31208E150E3
:08099C00EDE4F51BF51C80E6FB
:03000B000208F7F1
:1008F700C0E0C0F0C083C082C0D075D000C000C0C7
:1009070001C002C003C004C005C006C007051CE53E
:100917001C7002051BAE1BFF7C007D0612088CEDC8
:100927004C70031209F9D007D006D005D004D003C4
:10093700D002D001D000D0D0D082D083D0F0D0E088
:01094700327D
:1009DF00080900010203040506070A11C0F9A4B0B3
:0909EF00999282F8809001080041
:1009A4008D1D7401A807088002C333D8FCFD7F069F
:0F09B4001209C37411251DF8E6FD7F070209C360
:1009F90074092508F8E6FDAF081209A40508E508F9
:080A0900C394084003E4F50862
:010A110022C2
:100A2700438E805389F0758A66758CEAC28DD28CA5
:050A3700D2A9D2AF229C
:100A5000E4FEC297EF1392A3EFC313FFD2970EBE2B
:020A600008F09C
:010A62002271
:100A3C00C29300C29700D29300120A50AF05120A5B
:040A4C0050C29322DF
:10094800E4FDC29300C29700D29300120A50E4FF5C
:10095800C297EDC313FD30A303430580D2970FBFA1
:1009680008EEC29300C29700D29700C2A300D2A398
:0309780000AF05C8
:01097B002259
:100A63007D597F80120A3C7F82120A3C7D247F8459
:030A7300020A3C38
:10080C0002097CE493A3F8E493A34003F68001F27D
:10081C0008DFF48029E493A3F85407240CC8C333ED
:10082C00C4540F4420C8834004F456800146F6DFBC
:10083C00E4800B01020408102040809009DFE47E64
:10084C00019360BCA3FF543F30E509541FFEE493B1
:10085C00A360010ECF54C025E060A840B8E493A378
:10086C00FAE493A3F8E493A3C8C582C8CAC583CAA3
:10087C00F0A3C8C582C8CAC583CADFE9DEE780BE5B
:0109F80000FE
:10088C00BC000BBE0029EF8DF084FFADF022E4CC50
:10089C00F875F008EF2FFFEE33FEEC33FCEE9DEC19
:1008AC00984005FCEE9DFE0FD5F0E9E4CEFD22ED5F
:1008BC00F8F5F0EE8420D21CFEADF075F008EF2FA9
:1008CC00FFED33FD4007985006D5F0F222C398FD9A
:0508DC000FD5F0EA2237
:1008E100EB9FF5F0EA9E42F0E99D42F0EC6480C88E
:0608F10064809845F0222E
:00000001FF
