:03000000020800F3
:0C080000787FE4F6D8FD75812C020847D3
:050B3600000000002298
:100A94008D80EFC43354E0FFE5A0541F4FF5A0123E
:0C0AA4000B3653A01F120B36E4F5802225
:100AE400E4FD7F05120A947DFF7F04120A94E4FD5D
:050AF4007F06020A94D8
:1009E800120AE4120AF9120B0EE4F52BF52CAE2BC1
:1009F800AF2CE4FCFD7B407A9CF9F8C31208F35055
:100A080005E4F52BF52CAE2BAF2C7C007D64120889
:0A0A18009EED4C70D91209A580D4A0
:03000B00020909DE
:10090900C0E0C0F0C083C082C0D075D000C000C0B4
:1009190001C002C003C004C005C006C007052CE51C
:100929002C7002052BAE2BFF7C007D0612089EED74
:100939004C7003120ACBD007D006D005D004D003DF
:10094900D002D001D000D0D0D082D083D0F0D0E076
:01095900326B
:1009A50075220075230075241D75250075260075B3
:1009B500271E7B007A00791C120A22E51CC4540FFD
:1009C500F509E51C540FF50AE51DC4540FF50CE5B2
:1009D5001D540FF50DE51EC4540FF50FE51E540FFC
:0209E500F5100B
:0109E70022ED
:100AB000080900010A03040A06070B11C0F9A4B0D3
:0A0AC000999282F88090FF0108006F
:100A75008D2A7401A807088002C333D8FCFD7F06C0
:0F0A8500120A947411252AF8E6FD7F07020A94DD
:100ACB0074092508F8E6FDAF08120A750508E50854
:080ADB00C394084003E4F50890
:010AE30022F0
:100AF900438E805389F0758A66758CEAC28DD28CD3
:050B0900D2A9D2AF22C9
:100B2300E4FEC297EF1392A3EFC313FFD2970EBE57
:020B330008F0C8
:010B3500229D
:100A55008F1C8D1DC293120B36C297120B36D29383
:100A6500120B36AF1C120B23AF1D120B23C29322A0
:02095A008F28E4
:10095C00E4F529C293120B36C297120B36D29312BE
:10096C000B36AF28120B23E4FFC297E529C313F50E
:10097C002930A303432980D2970FBF08ECC29312EE
:10098C000B36C297120B36D297120B36C2A3120B30
:08099C0036D2A3120B36AF297D
:0109A4002230
:100B0E007D597F80120A557D597F82120A557D23A9
:050B1E007F84020A556E
:100A22008B1F8A2089217F8112095AAB25AA26A908
:100A320027EF12088C7F8312095AAB22AA23A9241A
:100A4200EF12088C7F8512095AAB1FAA20A921EF49
:030A520002088C0B
:10080C000209E8E493A3F8E493A34003F68001F211
:10081C0008DFF48029E493A3F85407240CC8C333ED
:10082C00C4540F4420C8834004F456800146F6DFBC
:10083C00E4800B0102040810204080900AB0E47E92
:10084C00019360BCA3FF543F30E509541FFEE493B1
:10085C00A360010ECF54C025E060A840B8E493A378
:10086C00FAE493A3F8E493A3C8C582C8CAC583CAA3
:10087C00F0A3C8C582C8CAC583CADFE9DEE780BE5B
:010ACA00002B
:10088C00BB010689828A83F0225002F722BBFE014B
:02089C00F32245
:10089E00BC000BBE0029EF8DF084FFADF022E4CC3E
:1008AE00F875F008EF2FFFEE33FEEC33FCEE9DEC07
:1008BE00984005FCEE9DFE0FD5F0E9E4CEFD22ED4D
:1008CE00F8F5F0EE8420D21CFEADF075F008EF2F97
:1008DE00FFED33FD4007985006D5F0F222C398FD88
:0508EE000FD5F0EA2225
:1008F300EB9FF5F0EA9E42F0E99D42F0EC6480C87C
:0609030064809845F0221B
:00000001FF
