:0300000002092DC5
:0C092D00787FE4F6D8FD75812002097483
:100ADC00E4F512F513120BE9120BD47F01120ABCC8
:0F0AEC00120B718F11120B557FE8120C3880F12D
:03000B000209B92E
:1009B900C0E0C0F0C083C082C0D075D000C000C004
:1009C90001C002C003C004C005C006C007AE12AF13
:1009D90013E4FCFD7B807A1A7906F8C3120A7A506F
:1009E90006751200751300AE12AF137C007D061256
:1009F9000A25ED4C7003120BA60513E513700205C9
:100A090012D007D006D005D004D003D002D001D02F
:0C0A190000D0D0D082D083D0F0D0E032EA
:100B5500EF75F06484F509EF75F00A8475F00A8481
:0C0B650085F00AEF75F00A8485F00B2281
:100B1A008D80EFC43354E0FFE5A0541F4FF5A000C9
:0E0B2A0000000053A01F00000000E4F5802230
:100BE900E4FD7F05120B1A7F06120B1A7DFF7F04A5
:030BF900020B1AD2
:0E0C0C0000007F027E437DB7DDFEDEFCDFFAD6
:010C1A0022B7
:100800007C0DC2C4D2C275B03FE5B0540FFF640F77
:100810006039120C0CE5B0540FFF640F602DEF240B
:10082000F9601724FC600F24FE600714700CE4FCD0
:10083000800A7C0480067C0880027C0DEF640F60D7
:1008400007E5B0540FFF80F4AF0422C2C2D2C475D2
:10085000B03FE5B0540FFF640F603D120C0CE5B0E3
:10086000540FFF640F6031EF24F9601724FC600F10
:1008700024FE60071470107C01800E7C05800A7CC9
:100880000980067C0A80027C0DEF640F6007E5B0EA
:10089000540FFF80F4AF042275B01FE5B0540FFF72
:1008A000640F603D120C0CE5B0540FFF640F603113
:1008B000EF24F9601724FC600F24FE600714701009
:1008C0007C02800E7C06800A7C0D80067C0B8002F8
:1008D0007C0DEF640F6007E5B0540FFF80F4AF04A8
:1008E0002275B02FE5B0540FFF640F603D120C0C61
:1008F000E5B0540FFF640F6031EF24F9601724FC5A
:10090000600F24FE60071470107C03800E7C07804B
:100910000A7C0D80067C0C80027C0DEF640F600762
:0C092000E5B0540FFF80F4AF04227F0DFF
:01092C0022A8
:100BFC00C0F9A4B0999282F88090FFBFC68C86C8C9
:0D0C2A0008090A0A0A0A0A0A0A0A01080053
:100AFB008D157401A807088002C333D8FCFD7F064F
:0F0B0B00120B1AE515900BFC93FD7F07020B1AD6
:100BA60074092508F8E6FDAF08120AFB0508E508F2
:060BB600B40803E4F50899
:010BBC002216
:0D0C38000000007E0B7DBEDDFEDEFCDFF364
:010C4500228C
:100BD400538E7F5389F0758A33758CFEC28DD28C07
:050BE400D2A9D2AF22EE
:040C4600D2A07F14A5
:080C4A0000AE071FEE70F92255
:0F0C1B00D2A1120C46C2A17F14120C4AC2A02211
:0C0C5200C2A1120C46D2A17F14020C4A71
:100BBD00C2A0A20092A17F14120C4A120C46C2A030
:070BCD00D2A17F14020C4AC3
:100B8C00D2A0E4FD7F14120C4AA2A1920020000412
:090B9C00C2A0D3220DBDC8ECC3B8
:010BA500222D
:020A9000AD07B0
:100A9200E4FCC2A07F14120C4AED30E704D2A1801C
:100AA20002C2A17F14120C4AD2A0ED25E0FD7F14F0
:090AB200120C4A0CBC08DBC2A0C6
:010ABB002218
:100B3800E4FC120C46ED25E0FD30A103430501C29B
:0C0B4800A07F14120C4A0CBC08E8AF059A
:010B5400227E
:100ABC008F14120C1B7F90120A90120B8CAF141215
:100ACC000A90120B8CE4FF120A90120B8C020C523F
:100B7100120C1B7F91120A90120B8C120B388F14DE
:0A0B8100D200120BBD120C52AF148B
:010B8B002247
:10093900020ADCE493A3F8E493A34003F68001F2EE
:1009490008DFF48029E493A3F85407240CC8C333BF
:10095900C4540F4420C8834004F456800146F6DF8E
:10096900E4800B0102040810204080900C2AE47EE8
:10097900019360BCA3FF543F30E509541FFEE49383
:10098900A360010ECF54C025E060A840B8E493A34A
:10099900FAE493A3F8E493A3C8C582C8CAC583CA75
:1009A900F0A3C8C582C8CAC583CADFE9DEE780BE2D
:010C370000BC
:100A2500BC000BBE0029EF8DF084FFADF022E4CCB5
:100A3500F875F008EF2FFFEE33FEEC33FCEE9DEC7E
:100A4500984005FCEE9DFE0FD5F0E9E4CEFD22EDC4
:100A5500F8F5F0EE8420D21CFEADF075F008EF2F0E
:100A6500FFED33FD4007985006D5F0F222C398FDFF
:050A75000FD5F0EA229C
:100A7A00EB9FF5F0EA9E42F0E99D42F0EC6480C8F3
:060A8A0064809845F02293
:00000001FF
