:03000000020115E5
:0C011500787FE4F6D8FD75814202015CA1
:0D055C00C0F9A4B0999282F88090FFBF0A08
:1003D50008390A0A0A0A0A0B0001013723014259A2
:1003E500014150042601051E3C0138000A2D18184C
:0B03F50018181818181818180121001B
:10000E0012047B12052812031C8F08E50860F7B452
:10001E000116E523B401110538E538D394034003E6
:10002E00E4F53812042C80DEE50864026003020059
:10003E00D4E523B401D0752302AD417F801205763D
:10004E00AD427F82120576AD377F84120576852408
:10005E002B85252CE525652C7004E524652B60F495
:10006E00AE24AF257C007D14120275ED4C70DF12AC
:10007E00021574262538F8E6FFE52AC39F4027208F
:10008E000224E4F52A1201A1742D2522F8A60705F3
:10009E0022900568E493FFE522C39F40B1E4F52268
:1000AE00F52AD20280A83002A512031C8F08E5089B
:1000BE006403709A752303C2027DFF7F0412053D0F
:1000CE001203A0020014E508B4031DE523B40318BF
:1000DE001203A0900568E493FFE522C39F5003022C
:1000EE000014E4F522020014E50864046003020023
:1000FE0014E52364036003020014752301F522F551
:07010E003812042C0200145A
:10053D008D80EFC43354E0F5A0000000E4F5A02257
:10047B00D200E4FD7F0512053D7DFF1F12053DE413
:10048B00FD7F0612053D752301E4F522F52AF524BF
:04049B00F525C2027F
:01049F00223A
:10052800438E805389F0758A60758C73C28DD28C26
:05053800D2AFD2A922A0
:03000B000202CA24
:1002CA00C0E0C0F0C083C082C0D075D000C000C0FA
:1002DA0001C002C003C004C005C006C00712050F52
:1002EA000525E52570020524D39410E524942740BA
:1002FA0006752400752500D007D006D005D004D095
:10030A0003D002D001D000D0D0D082D083D0F0D098
:02031A00E032CF
:1004BE00AE057401A807088002C333D8FCFD7F0681
:0D04CE0012053DEE90055C93FD0F02053D0B
:10050F0074392521F8E6FDAF211204BE0521E5213E
:08051F00C394084003E4F52138
:0105270022B1
:10042C0075390A753A0A753B0A753C0A753D0A75A9
:10043C003E0B74262538F8E6FF75F00A84F53FEF7D
:08044C0075F00A8485F04022DE
:0E054D0000007F017EEA7D71DDFEDEFCDFFA3C
:01055B00227D
:10031C00E4FC20B00D12054D20B03930B0FD7C044A
:10032C00803220B10D12054D20B12930B1FD7C0376
:10033C00802220B20D12054D20B21930B2FD7C0284
:10034C00801220B30D12054D20B30930B3FD7C0192
:06035C008002E4FCAF0486
:010362002278
:10021500C2007F81120363EF65416004B200052AC5
:100225008F417F831203638F427F851203638F376C
:10023500E537C4540FF539E537540FF53AA200E414
:1002450033FF240AFEF53BE542C4540FF53CE54275
:10025500540FF53D8E3EE541C4540FF53FE541543D
:0F0265000FF540300209EF24FEFD7F0412053D26
:010274002267
:1001A100120454920030000512054D80F37FCC12E9
:1001B10004A07F441204A085242B85252CE5256508
:1001C1002C7004E524652B60F4AE24AF257C007D02
:1001D100C8120275ED4C70E512045492003000050E
:1001E10012054D80F37FCC1204A07FBE1204A01231
:1001F10004F58F091204F58F0A120454920030009D
:100201000512054D80F3E50AC454F0FFE509C45415
:030211000F2FFFAD
:0102140022C7
:1003A00075390BE52275F00A84F53AE52275F00AF5
:1003B0008485F03B753C0A753D0A753E0B742D250E
:1003C00022F8E6FF75F00A84F53FEF75F00A8485A0
:0503D000F040052222AF
:0D0569000000000000000000000000002263
:0F040100C293120569C297120569D29312056959
:10041000E4FEC297120569EF1392A3EFC313FF1214
:0B0420000569D2971205690EBE08E7BF
:01042B0022AE
:0B057600120401AF05120410C2932212
:10036300E4FD120401E4FFC297EDC313FD12056916
:1003730030A303430580D2971205690FBF08E8C273
:1003830093120569C293C297120569D29712056940
:0C039300C2A3120569D2A3120569AF05D0
:01039F00223B
:0404DB007F057E001B
:1004DF00EF1FAA0670011E4A600BE4FDEDC39408DE
:0504EF0050EE0D80F746
:0104F40022E5
:10045400C201D2947F0C7E001204DFC2947F507ECE
:10046400001204DFD2947F0A7E001204DFA2949269
:06047400011204DBA201ED
:01047A00225F
:0204A000A907AA
:1004A200E4FBC294E91392941204DBD294E9C313DD
:0C04B200F90BBB08ED7F057E000204DFA3
:1004F500E4FBC294ECC313FCD29430940343048010
:090505001204DB0BBB08EBAF0490
:01050E0022CA
:1001210002000EE493A3F8E493A34003F68001F2E6
:1001310008DFF48029E493A3F85407240CC8C333DF
:10014100C4540F4420C8834004F456800146F6DFAE
:10015100E4800B01020408102040809003D5E47E66
:10016100019360BCA3FF543F30E509541FFEE493A3
:10017100A360010ECF54C025E060A840B8E493A36A
:10018100FAE493A3F8E493A3C8C582C8CAC583CA95
:10019100F0A3C8C582C8CAC583CADFE9DEE780BE4D
:0104000000FB
:10027500BC000BBE0029EF8DF084FFADF022E4CC6D
:10028500F875F008EF2FFFEE33FEEC33FCEE9DEC36
:10029500984005FCEE9DFE0FD5F0E9E4CEFD22ED7C
:1002A500F8F5F0EE8420D21CFEADF075F008EF2FC6
:1002B500FFED33FD4007985006D5F0F222C398FDB7
:0502C5000FD5F0EA2254
:00000001FF
