:03000000020800F3
:0C080000787FE4F6D8FD75810D020847F2
:0A099300C0F9A4B0999282F8809098
:0E09840002090000020B0000010D000108FE38
:10096400E4FDFCC3ED9FEC9E5015E4FBFA0BBB00C9
:0F097400010AEB64824A70F50DBD00010C80E4AE
:010983002251
:03000B000208D216
:1008D200C0E0C0D075D000C000C007050AE50A70AC
:1008E200020509C39405E5099400401D75090075C8
:1008F2000A00AF087801EF08800123D8FDF508F55A
:100902008043A08053A01F8000D007D000D0D0D059
:02091200E032D1
:03001B00020914C3
:10091400C0E0C0D0050CE50C7002050BC39414E5CF
:100924000B94004015750B00750C00E50D943B40CD
:0F09340005750D008004050D8000D0D0D0E03295
:10088C00E50D75F00A84FFE50D75F00A84A9F0EF0B
:10089C0090099393F58043A0E053A01F758001430A
:1008AC00A0D053A01F7F057E00120964AF01EF9307
:1008BC00F58043A0E053A01F75800243A0D053A045
:0608CC001F7F0502096414
:10094300538E3FE4F589758A58758C9E758BB07507
:100953008D3CD28CD2A9D28ED2ABD2AF12088C806E
:01096300FB98
:10080C00020943E493A3F8E493A34003F68001F2B6
:10081C0008DFF48029E493A3F85407240CC8C333ED
:10082C00C4540F4420C8834004F456800146F6DFBC
:10083C00E4800B0102040810204080900984E47EBF
:10084C00019360BCA3FF543F30E509541FFEE493B1
:10085C00A360010ECF54C025E060A840B8E493A378
:10086C00FAE493A3F8E493A3C8C582C8CAC583CAA3
:10087C00F0A3C8C582C8CAC583CADFE9DEE780BE5B
:010992000064
:00000001FF
