:030000000208A152
:0C08A100787FE4F6D8FD75810C0208E8B1
:0309D100010CFE18
:10092D001209A012098BE4F508F509AD0C7F04122C
:10093D0009B485080A85090BE50B65097004E50AFC
:10094D00650860F4AE08AF097C277D10120800ED34
:10095D004C700DAF0C7801EF08800123D8FDF50C1C
:10096D00AE08AF09EE3395E0FDFCE47B407A9CF9CF
:0E097D00F8C312083650B4E4F508F50980AD51
:03000B000209C423
:0D09C400C0E00509E50970020508D0E03229
:1009B4008D80EFC43354E042A000000053A01F22F6
:1009A000E4FD7F051209B47DFF1F1209B4E4FD7F49
:0409B000060209B47E
:10098B00438E805389F0758A50758CFBC28DD28C47
:05099B00D2AFD2A92239
:1008AD0002092DE493A3F8E493A34003F68001F22B
:1008BD0008DFF48029E493A3F85407240CC8C3334C
:1008CD00C4540F4420C8834004F456800146F6DF1B
:1008DD00E4800B01020408102040809009D1E47ED1
:1008ED00019360BCA3FF543F30E509541FFEE49310
:1008FD00A360010ECF54C025E060A840B8E493A3D7
:10090D00FAE493A3F8E493A3C8C582C8CAC583CA01
:10091D00F0A3C8C582C8CAC583CADFE9DEE780BEB9
:0109D4000022
:10080000C2D5EC30E709B2D5E4C39DFDE49CFCEE13
:1008100030E715B2D5E4C39FFFE49EFE12084CC337
:10082000E49DFDE49CFC800312084C30D507C3E432
:060830009FFFE49EFE2282
:10083600EB9FF5F0EA9E42F0E99D42F0EC6480C839
:0608460064809845F022D9
:10084C00BC000BBE0029EF8DF084FFADF022E4CC90
:10085C00F875F008EF2FFFEE33FEEC33FCEE9DEC59
:10086C00984005FCEE9DFE0FD5F0E9E4CEFD22ED9F
:10087C00F8F5F0EE8420D21CFEADF075F008EF2FE9
:10088C00FFED33FD4007985006D5F0F222C398FDDA
:05089C000FD5F0EA2277
:00000001FF
