:03000000020AC32E
:0C0AC300787FE4F6D8FD75811F020B0A55
:040D62000001020387
:0A0D4300041701020304021508B9A9
:100C0800120CE6E4F51DF51E851D1B851E1CE51C52
:100C1800651E7004E51B651D60F4AE1DAF1E7C13D8
:100C28007D88120A69ED4C7010120C5F8E158F16B4
:100C38007B007A007917120BAEAE1DAF1EEE33950E
:100C4800E0FDFCE47B407A9CF9F8C3120AAD50B889
:070C5800E4F51DF51E80B15B
:03000B00020B4F96
:100B4F00C0E0C0F0C083C082C0D075D000C000C06C
:100B5F0001C002C003C004C005C006C007051EE5E2
:100B6F001E7002051DAE1DFF7C007D1E120A69ED71
:100B7F004C7011F5117512007513177BFF7A0D79F3
:100B8F0062120C9DD007D006D005D004D003D0023E
:0F0B9F00D001D000D0D0D082D083D0F0D0E032BF
:0A0BAE008E088F098B0A8A0B890C50
:100BB800D3E509940FE508942740067508277509B9
:100BC8000F750D03AE08AF097C007D0A120A14AF39
:100BD80005AB0AAA0BA90CE50DFD3395E08D82F54E
:100BE80083EF1209F2AE08AF097C007D0A120A14DD
:0F0BF8008E088F09150DC3E50D6480948050C5DC
:010C070022CA
:100D23008D80EFC43354E042A000000053A01F2283
:100CFD00438E805389F0758A50758CFBC28DD28CD2
:050D0D00D2A9D2AF22C3
:100CE600E4FD7F05120D237DFF1F120D23E4FD7F1A
:070CF60006120D23020CFDA4
:0A0D5100C0F9A4B0999282F88090D6
:030D4D00011F0083
:100CC7008D147401A807088002C333D8FCFD7F0682
:0F0CD700120D23E514900D5193FD7F07020D239D
:100C9D00E51FC394044003E4F51F851F827583008F
:100CAD001209C5FFAB11AA12A913851F8275830006
:090CBD001209C5FD120CC7051F48
:010CC600220B
:060D5B0000007F21DFFE15
:010D6100226F
:100D3300438EBF53890FE4F58BF58DC28FD2912279
:100D1200E4FED290120D5BC290120D5B0EBE08F281
:010D220022AE
:100C5F00120D33120D12D28E309103308FFAC28ED5
:100C6F00308F067C277D0F8020AF8DEFFEAD8BED93
:100C7F00FFE4AC0612090B7B7B7A14792E783E12B7
:0D0C8F000800120944AC06AD07AF05AE0425
:010C9C002235
:10080000EC4D6011E8497017ED33EC3304600DE4F2
:10081000FCFFFEFD22E933E8330470F80209B01250
:10082000097B58046009E4CC248150062850090251
:1008300009BA2840030209B7C0E0EB4A7044B98006
:1008400006D0E0FB0209A6EF4E701CBD8008EBFF4E
:10085000EAFEE9FD80EBE98DF0A4FEE5F00208E98F
:10086000E9CDF9EAFEEBFFEF89F0A4FCE5F0CE89D3
:10087000F0A42EFFE435F0CD89F0A42DFEE435F090
:100880008067EF4E7005BD80D780C3EF8BF0A4ACBE
:10089000F0EE8BF0A42CFCE435F0F8EF8AF0A42CF9
:1008A000E5F038FCE433CB8DF0A42CFCE5F03BF80C
:1008B000EE8AF0A42CFCE5F038F8E433CF89F0A4FC
:1008C0002CFCE5F038CF3400CE89F0A42FFFE5F002
:1008D0003EFEE433C98DF0A42EFEE5F039CD8AF05A
:1008E000A42FFFE5F03EFEE43DFD33D0E0FB5007D2
:1008F0000BBB000F0209BAEC2CFCEF33FFEE33FE0A
:06090000ED33FD02099237
:1009060075F020800E75F010800575F0087D007E6C
:10091600007F003392D530D503120A9FEC33401086
:10092600EF33FFEE33FEED33FDEC33FCD5F0ED2275
:0E093600E5F0247EA2D513CC92E7CDCEFF22B1
:10094400EDD2E7CD33EC3392D524814006E4FFFEAB
:10095400FDFC22FCE4CFCECDCC24E0501174FF800A
:10096400EDC3CC13CCCD13CDCE13CECF13CF0470A7
:07097400F030D5DE020A9FFE
:10097B00E9D2E7C933E833F892D5EDD2E7CD33ECC2
:07098B0033FC5002B2D5223B
:10099200EC30E7100FBF000C0EBE00080DBD0004C6
:1009A2000BEB6014A2D5EB13FCED92E7FD2274FF72
:1009B200FCFDFEFF22E480F8A2D574FF13FC7D80CB
:0309C200E480EFDF
:100ACF00020C08E493A3F8E493A34003F68001F229
:100ADF0008DFF48029E493A3F85407240CC8C33328
:100AEF00C4540F4420C8834004F456800146F6DFF7
:100AFF00E4800B0102040810204080900D43E47E37
:100B0F00019360BCA3FF543F30E509541FFEE493EB
:100B1F00A360010ECF54C025E060A840B8E493A3B2
:100B2F00FAE493A3F8E493A3C8C582C8CAC583CADD
:100B3F00F0A3C8C582C8CAC583CADFE9DEE780BE95
:010D500000A2
:1009C500BB010CE58229F582E5833AF583E02250E7
:1009D50006E92582F8E622BBFE06E92582F8E22231
:0D09E500E58229F582E5833AF583E493224B
:1009F200F8BB010DE58229F582E5833AF583E8F03B
:100A0200225006E92582C8F622BBFE05E92582C8E6
:020A1200F222CE
:100A1400BC000BBE0029EF8DF084FFADF022E4CCC6
:100A2400F875F008EF2FFFEE33FEEC33FCEE9DEC8F
:100A3400984005FCEE9DFE0FD5F0E9E4CEFD22EDD5
:100A4400F8F5F0EE8420D21CFEADF075F008EF2F1F
:100A5400FFED33FD4007985006D5F0F222C398FD10
:050A64000FD5F0EA22AD
:100A6900C2D5EC30E709B2D5E4C39DFDE49CFCEEA8
:100A790030E715B2D5E4C39FFFE49EFE120A14C302
:100A8900E49DFDE49CFC8003120A1430D507C3E4FD
:060A99009FFFE49EFE2217
:0E0A9F00C3E49FFFE49EFEE49DFDE49CFC2268
:100AAD00EB9FF5F0EA9E42F0E99D42F0EC6480C8C0
:060ABD0064809845F02260
:00000001FF
