:030000000208A350
:0C08A300787FE4F6D8FD7581080208009B
:0A08AF00C0F9A4B0999282F880907D
:10088300E4FDFCD3ED9FEC9E5015E4FBFA0BBB009B
:0F089300010AEB64794A70F50DBD00010C80E499
:0108A2002233
:1008000075080143A0E0E5089008AF93F58053A078
:100810001FE4F58043A0D0E50814B40800504B90C5
:10082000082D75F003A4C58325F0C5837302084520
:1008300002084702084C02085102085602085B02EF
:10084000086002086580237580028021758004801D
:100850001C75800880177580108012758020800DAF
:100860007580408008758080800375800153A01FCB
:100870007F017E001208830508E508D394084083B1
:030880000208006B
:00000001FF
