:03000000020800F3
:0C080000787FE4F6D8FD758120020847DF
:040AC800C100C101A7
:1009AC00120AB480032000157B007A00790A7516B0
:1009BC00087F2212090C920080EB2001127B007A36
:1009CC0000790A7516087F2212088C920180EB20A0
:0E09DC0001077D7F7F04120AEA120A6280F191
:040AF900D2A07F0503
:080AFD0000AE071FEE70F922A4
:0F0ADB00D2A1120AF9C2A17F05120AFDC2A02200
:0C0B0500C2A1120AF9D2A17F05020AFD6C
:100A9D00C2A0A20392A17F05120AFD120AF9C2A0FB
:070AAD00D2A17F05020AFD42
:080A4000120ADB7FA01209EA93
:100A4800D2A0E4FD7F05120AFDA2A19203200304AF
:090A5800C2A0D3220DBDC8ECC3FD
:010A61002272
:0209EA00AD0757
:1009EC00E4FCC2A07F05120AFDED30E704D2A18021
:1009FC0002C2A17F05120AFDD2A0ED25E0FD7F0504
:090A0C00120AFD0CBC08DBC2A0BB
:010A150022BE
:100A8000E4FC120AF9ED25E0FD30A103430501C2A3
:0C0A9000A07F05120AFD0CBC08E8AF05B1
:010A9C002237
:08090C008F128B138A14891568
:10091400120A409202200202C322AF121209EA1202
:100924000A489202200202C322E4F517E517C39590
:10093400165021AB13AA14A91585178275830012CA
:10094400095DFF1209EA120A489202200202C32238
:08095400051780D8120B05D332
:01095C002278
:08088C008F128B138A148915E9
:10089400120A409202200202C322AF121209EA1283
:1008A4000A489202200202C322120ADB7FA1120923
:1008B400EA120A489202200202C322E4F517E5165E
:1008C40014FFE517C39F501C120A80AB13AA14A986
:1008D40015851782758300EF12098AC203120A9DD7
:1008E400051780DA120A80E5167C0024FFF582ECF5
:1008F40034FFF583AB13AA14A915EF12098AD203A6
:07090400120A9D120B05D33E
:01090B0022C9
:0F0AEA008D80EFC43354E0F5A0E4F5A0F5802231
:100AB400E4FD7F05120AEA7DFF1F120AEAE4FD7FC6
:040AC40006020AEA32
:0B0B1100C0F9A4B0999282F88090FF18
:0E0ACC00080A010203040A0A0A0A02080000CE
:100A16008F128D137DFF7F07120AEAAF127401A8A9
:100A260007088002C333D8FCFD7F06120AEAE513E5
:0A0A3600900B1193FD7F07020AEAFE
:100A6200AF09740A2FF8E6FD120A160509E50970A6
:0D0A7200020508640845087004F508F50940
:010A7F002254
:10080C000209ACE493A3F8E493A34003F68001F24D
:10081C0008DFF48029E493A3F85407240CC8C333ED
:10082C00C4540F4420C8834004F456800146F6DFBC
:10083C00E4800B0102040810204080900AC8E47E7A
:10084C00019360BCA3FF543F30E509541FFEE493B1
:10085C00A360010ECF54C025E060A840B8E493A378
:10086C00FAE493A3F8E493A3C8C582C8CAC583CAA3
:10087C00F0A3C8C582C8CAC583CADFE9DEE780BE5B
:010ADA00001B
:10095D00BB010CE58229F582E5833AF583E022504F
:10096D0006E92582F8E622BBFE06E92582F8E22299
:0D097D00E58229F582E5833AF583E49322B3
:10098A00F8BB010DE58229F582E5833AF583E8F0A3
:10099A00225006E92582C8F622BBFE05E92582C84F
:0209AA00F22237
:00000001FF
