:03000000020CF0FF
:0C0CF000787FE4F6D8FD758123020D37F3
:100EAD00081402030A05090A050001091701113B7F
:100EBD00010E32010800010F00010B00011F00C1DE
:090ECD0001011300C180011000B5
:10091600120F60E4F50CF50D120D7C850C1C850D8F
:100926001DE50D651D7004E50C651C60F4AE0CAF8D
:100936000DE4FCFD7B507AC3F9F8C3120CDA5005BE
:10094600E4F50CF50DAE0CAF0D7C047D4C120C8558
:10095600ED4C7021120E0A120800E509B50816E5DD
:1009660011B50F11E50EB50B0CE51E640460067596
:100976001E04E4F513AE0CAF0D7C027D58120C85F7
:10098600ED4C7097120AF18F1FE51F24FE602414A8
:10099600603B14605224037082E51E7003750A01E1
:1009A600E50AB40103120E7CE51E64046003020925
:1009B600218028E51E7003750A02E50AB4020312B7
:1009C6000E7CE51E64046003020921800EE4FF121A
:1009D6000A07E51E64046003020921F51E7DFF7FF8
:1009E60004120FE20209217F01120A07E51E6404C0
:1009F6006003020921F51E7DFF7F04120FE2020942
:010A060021CE
:03000B00020BB92C
:100BB900C0E0C0F0C083C082C0D075D000C000C002
:100BC90001C002C003C004C005C006C007050DE589
:100BD9000D7002050CAE0CFF7C007D14120C85ED26
:100BE9004C7008FB7A007914120F7DAE0CAF0D7CA6
:100BF900277D10120C85ED4C6002B201E51E6404DC
:100C09007032AE0CAF0D7C077DD0120C85ED4C70A7
:100C190023A2003324FEFD7F04120FE2B200051364
:100C2900E513C39419400D7DFF7F04120FE2751E71
:100C390000751300D007D006D005D004D003D00228
:0F0C4900D001D000D0D0D082D083D0F0D0E03214
:100D7C00E50E75F00A84C454F0FFE50E75F00A8494
:100D8C00E5F02FFD7F8012101EE51175F00A84C46A
:100D9C0054F0FFE51175F00A84E5F02FFD7F821207
:100DAC00101EE50975F00A84C454F0FFE50975F0CE
:0B0DBC000A84E5F02FFD7F8402101E6A
:100DC7007F81120E45EFC4540FFEEF540FFDEE75F1
:100DD700F00AA42DF50E7F83120E45EFC4540FFEC3
:100DE700EF540FFDEE75F00AA42DF5117F85120E55
:100DF70045EFC4540FFEEF540FFDEE75F00AA42D16
:020E0700F509EB
:010E090022C6
:100E0A00E51E7036120DC7E50975F00A84F514E57A
:100E1A000975F00A8485F015E51175F00A84F5174D
:100E2A00E51175F00A8485F018E50E75F00A84F567
:0B0E3A001AE50E75F00A8485F01B22FB
:10080000E50A6401600302088B300109E51EB401AA
:10081000047F0C8007E50975F00A84FF8F1430010E
:1008200009E51EB401047F0C8008E50975F00A840F
:10083000AFF08F15300109E51EB402047F0C80076C
:10084000E51175F00A84FF8F17300109E51EB40227
:10085000047F0C8008E51175F00A84AFF08F183022
:100860000109E51EB403047F0C8007E50E75F00A4C
:1008700084FF8F1A300109E51EB403047F0C800841
:10088000E50E75F00A84AFF08F1B22E50A64026062
:1008900003020915300109E51EB401047F0C80072D
:1008A000E50875F00A84FF8F14300109E51EB401D4
:1008B000047F0C8008E50875F00A84AFF08F1530CE
:1008C0000109E51EB402047F0C8007E50F75F00AEC
:1008D00084FF8F17300109E51EB402047F0C8008E5
:1008E000E50F75F00A84AFF08F18300109E51EB4EA
:1008F00003047F0C8007E50B75F00A84FF8F1A3024
:100900000109E51EB403047F0C8008E50B75F00AAD
:0609100084AFF08F1B22F2
:100E7C00E51E7004751E0122E51EB40104751E02E8
:100E8C0022E51EB40204751E0322E51EB4030EE512
:100E9C000AB40103120D7CE4F51EF50A22E4F51EDA
:010EAC002223
:100A0700EF7079E51E24FE602F1460512402600305
:100A1700020AF0E50AB4010AE509C3941750030571
:100A27000922E50A64026003020AF0E508C3941785
:100A37004003020AF0050822E50AB4010AE511C3DA
:100A4700943B5003051122E50A64026003020AF091
:100A5700E50FC3943B4003020AF0050F22E50AB4F1
:100A6700010AE50EC3943B5003050E22E50A640212
:100A77007077E50BC3943B5070050B22EF64017050
:100A870068E51E24FE60261460422402705BE50AB6
:100A9700B4010AE509D394004003150922E50A6465
:100AA700027046E508D39400403F150822E50AB4D2
:100AB700010AE511D394004003151122E50A6402E7
:100AC7007027E50FD394004020150F22E50AB401E3
:100AD7000AE50ED394004003150E22E50AB4020975
:0A0AE700E50BD394004002150B222A
:100FE2008D80EFC43354E0F5A000000053A01FE44D
:030FF200F5802265
:100F6000E4FD7F05120FE27DFF1F120FE2E4FD7F1B
:0D0F700006120FE2120FCDE4F51EF50A2265
:0D10040000000000000000000000000022BD
:0F0F0100C293121004C297121004D2931210045C
:100F1000E4FEC297EF1392A3EFC313FFD2970EBE66
:020F200008F0D7
:010F220022AC
:0B101E00120F01AF05120F10C2932249
:100E4500E4FD120F01E4FFC297EDC313FD30A303C8
:100E5500430580D2970FBF08EEC293121004C293C8
:100E6500C297121004D297121004C2A3121004D212
:060E7500A3121004AF05FA
:010E7B002254
:0D101100C0F9A4B0999282F88090BFC6FF8C
:030ED600012300F5
:100F23008D227401A807088002C333D8FCFD7F0615
:0F0F3300120FE2E52290101193FD7F07020FE2EB
:100F7D00E523C394084003E4F5238523827583009C
:0B0F8D00120C58FDAF23120F230523A8
:010F98002236
:100FCD00438E805389F0758A50758CFBC28DD28CFF
:050FDD00D2A9D2AF22F1
:0E0FF50000007F017EEA7D71DDFEDEFCDFFA8A
:0110030022CA
:100AF10020B00F120FF530B003020BB630B0FD7FFE
:100B0100012220B10F120FF530B103020BB630B143
:100B1100FD7F022220B20F120FF530B203020BB695
:100B210030B2FD7F032230B303020BB3120FF53055
:100B3100B303020BB620B371E51E70F9120EDA5041
:100B410005120FF580F67FCC120F427F44120F423F
:100B51003094FD8005120EDA5005120FF580F67FF4
:100B6100CC120F427FBE120F42120FB38F21120F10
:100B7100B3AC07ECC454F0FFE521C4540F2FF512B8
:100B810075140C75150C75160C75170C75180C75FC
:100B9100F00A84F519E51275F00A8485F01A751BBF
:100BA1000B120FF5120FF5808C75160A75190A7F55
:070BB10004227F00227F00F7
:010BB800221A
:040F99007F057E0052
:100F9D00EF1FAA0670011E4A600BE4FDEDC3940815
:050FAD0050EE0D80F77D
:010FB200221C
:020F4200A907FD
:100F4400E4FBC294E9139294120F99D294E9C31367
:0C0F5400F90BBB08ED7F057E00020F9D2D
:100FB300E4FBC294ECC313FCD29430940343048047
:090FC300120F990BBB08EBAF04FF
:010FCC002202
:100EDA00C202D2947F0C7E00120F9DC2947F507E74
:100EEA0000120F9DD2947F0A7E00120F9DA2949247
:060EFA0002120F99A20292
:010F000022CE
:100CFC00020916E493A3F8E493A34003F68001F2EF
:100D0C0008DFF48029E493A3F85407240CC8C333F8
:100D1C00C4540F4420C8834004F456800146F6DFC7
:100D2C00E4800B0102040810204080900EADE47E9C
:100D3C00019360BCA3FF543F30E509541FFEE493BC
:100D4C00A360010ECF54C025E060A840B8E493A383
:100D5C00FAE493A3F8E493A3C8C582C8CAC583CAAE
:100D6C00F0A3C8C582C8CAC583CADFE9DEE780BE66
:010ED9000018
:100C5800BB010CE58229F582E5833AF583E0225051
:100C680006E92582F8E622BBFE06E92582F8E2229B
:0D0C7800E58229F582E5833AF583E49322B5
:100C8500BC000BBE0029EF8DF084FFADF022E4CC53
:100C9500F875F008EF2FFFEE33FEEC33FCEE9DEC1C
:100CA500984005FCEE9DFE0FD5F0E9E4CEFD22ED62
:100CB500F8F5F0EE8420D21CFEADF075F008EF2FAC
:100CC500FFED33FD4007985006D5F0F222C398FD9D
:050CD5000FD5F0EA223A
:100CDA00EB9FF5F0EA9E42F0E99D42F0EC6480C891
:060CEA0064809845F02231
:00000001FF
