:030000000208CF24
:0C08CF00787FE4F6D8FD75812002091640
:040C4C00030407088E
:100B3D0002120000010E00010F00011000010D0452
:0C0B4D0004090000000001110001080074
:10080000120C45120BC0120BD5751A00751B007522
:0D0810001C107B007A00790F7F05120A7022
:10081D00851214851315AE12AF13E4FCFD7B407ADF
:10082D009CF9F8C31209C25005E4F512F513AE1286
:10083D00AF137C037DE812096DED4C702BE510753F
:10084D00F00A84F509E51075F00A8485F00AE50FC4
:10085D0075F00A84F50BE50F75F00A8485F00CAB85
:10086D0010AD0F7F05120B1BAE12AF137C007D6414
:10087D0012096DED4C703A120A298F08E5086031A6
:10088D0024FE601914602524027026E50FC3943BE5
:10089D004007E4F50F05108018050F8014E50F7063
:1008AD0007750F3B15108009150F8005E4F50FF541
:1008BD0010E51565137004E5146512600302081D3B
:0208CD0080EFBA
:03000B000209D80F
:1009D800C0E0C0F0C083C082C0D075D000C000C0E5
:1009E80001C002C003C004C005C006C0070513E566
:1009F8001370020512AE12FF7C007D0A12096DED1C
:100A08004C7003120AF9D007D006D005D004D003E1
:100A1800D002D001D000D0D0D082D083D0F0D0E0A6
:010A2800329B
:03001B00020AD501
:100AD500C0E0C0D0050EE50EC394144012750E009B
:100AE500E50F943B4007750F0005108002050FD0F8
:040AF500D0D0E0324B
:100AF900E511900C4C93FF74092511F8E6FD120BD2
:100B090077E50D14FFE511C39F4004E4F5112205B3
:020B19001122A7
:100C0E0053A01F8D80EFC43354E042A053A01F2287
:070C4500E4FD7F05020C0E27
:100BEA00C0F9A4B0999282F88090010204081020FA
:020BFA00408039
:100B77008D1DEF900BF393FD7F06120C0EE51D9074
:090B87000BEA93FD7F07020C0E3E
:100BC000438E805389F0758A66758CEAC28DD28C0B
:050BD000D2AFD2A92202
:100BD500538EBF53890FE4F58B758D4CC28FD28E22
:050BE500D2AFD2AB22EB
:100BFC000000007E0B7DBEDDFEDEFCAE071FEE703E
:010C0C00EFF8
:010C0D0022C4
:100A290020B00E7F0F120BFC20B00630B0FD7F0105
:100A39002220B10E7F0F120BFC20B10630B1FD7FD1
:100A4900022220B20E7F0F120BFC20B20630B2FD3B
:100A59007F032220B30E7F0F120BFC20B30630B3A5
:070A6900FD7F04227F002243
:040C2D00D2A07F05CD
:080C310000AE071FEE70F9226E
:0F0C1E00D2A1120C2DC2A17F05120C31C2A0224F
:0C0C3900C2A1120C2DD2A17F05020C31CB
:100BA900C2A0A20092A17F05120C31120C2DC2A085
:070BB900D2A17F05020C31FF
:080B9000120C1E7FA0120AA93D
:100B9800120C2DA2A19200C2A07F05120C31A20056
:010BA800222A
:020AA900AD0797
:100AAB00E4FCC2A07F05120C31ED30E704D2A1802B
:100ABB0002C2A17F05120C31D2A0ED25E0FD7F050E
:090ACB00120C310CBC08DBC2A0C6
:010AD40022FF
:100B5A00E4FC120C2DED25E0FD30A103430501C292
:0C0B6A00A07F05120C310CBC08E8AF05A0
:010B7600225C
:100B1B00AA07A905120B90AF02120AA9120B98AFE4
:100B2B0001120AA9120B98AF03120AA9120B980211
:020B3B000C3973
:100A70008F16120B90AF16120AA9120B98120C1EA9
:100A80007FA1120AA9120B98120B5AEF12095BC22E
:100A900000120BA9120B5AAB1AAA1BA91CEF1209C0
:090AA0005BD200120BA9020C3913
:1008DB00020800E493A3F8E493A34003F68001F22B
:1008EB0008DFF48029E493A3F85407240CC8C3331E
:1008FB00C4540F4420C8834004F456800146F6DFED
:10090B00E4800B0102040810204080900B3DE47E34
:10091B00019360BCA3FF543F30E509541FFEE493E1
:10092B00A360010ECF54C025E060A840B8E493A3A8
:10093B00FAE493A3F8E493A3C8C582C8CAC583CAD3
:10094B00F0A3C8C582C8CAC583CADFE9DEE780BE8B
:010B5900009B
:10095B00BB010689828A83F0225002F722BBFE017B
:02096B00F32275
:10096D00BC000BBE0029EF8DF084FFADF022E4CC6E
:10097D00F875F008EF2FFFEE33FEEC33FCEE9DEC37
:10098D00984005FCEE9DFE0FD5F0E9E4CEFD22ED7D
:10099D00F8F5F0EE8420D21CFEADF075F008EF2FC7
:1009AD00FFED33FD4007985006D5F0F222C398FDB8
:0509BD000FD5F0EA2255
:1009C200EB9FF5F0EA9E42F0E99D42F0EC6480C8AC
:0609D20064809845F0224C
:00000001FF
