:0300000002089C57
:0C089C00787FE4F6D8FD75812002087515
:10084100506C6561736520656E74657220746865AE
:0B085100206E756D6265723A0D0A00A2
:100875001208257BFF7A0879411208007BFF7A0868
:07088500794112080080F523
:0300230002088C44
:10088C00309805C29885990B309904C299C20032F0
:10082500E5A2543FF5A2759850758E40E4F589759B
:0C0835008BE8758DFFD28ED2ACD2AF22C2
:0908A8002000FDEFD200F59922B9
:100800008B088A09890AAB08AA09A90A12085C6040
:1008100013050AE50A7002050914F912085CFF12B3
:0508200008A880E2229F
:10085C00BB010689828A83E0225002E722BBFE029A
:09086C00E32289828A83E49322CD
:00000001FF
